{
  "contractName": "LiquidDAO",
  "abi": [
    {
      "inputs": [
        {
          "name": "_threshold",
          "type": "uint256"
        }
      ],
      "payable": false,
      "stateMutability": "nonpayable",
      "type": "constructor"
    },
    {
      "anonymous": false,
      "inputs": [
        {
          "indexed": false,
          "name": "voteID",
          "type": "bytes32"
        },
        {
          "indexed": false,
          "name": "count",
          "type": "uint256"
        }
      ],
      "name": "logVoteCount",
      "type": "event"
    },
    {
      "anonymous": false,
      "inputs": [
        {
          "indexed": false,
          "name": "voteID",
          "type": "bytes32"
        },
        {
          "indexed": false,
          "name": "user",
          "type": "address"
        }
      ],
      "name": "logVoteToRemove",
      "type": "event"
    },
    {
      "anonymous": false,
      "inputs": [
        {
          "indexed": false,
          "name": "voteID",
          "type": "bytes32"
        },
        {
          "indexed": false,
          "name": "account",
          "type": "address"
        },
        {
          "indexed": false,
          "name": "amount",
          "type": "uint256"
        },
        {
          "indexed": false,
          "name": "token",
          "type": "address"
        }
      ],
      "name": "logVoteToTransfer",
      "type": "event"
    },
    {
      "constant": false,
      "inputs": [
        {
          "name": "_voteID",
          "type": "bytes32"
        }
      ],
      "name": "voteFor",
      "outputs": [],
      "payable": false,
      "stateMutability": "nonpayable",
      "type": "function"
    },
    {
      "constant": false,
      "inputs": [
        {
          "name": "_user",
          "type": "address"
        }
      ],
      "name": "delegateTo",
      "outputs": [
        {
          "name": "",
          "type": "bool"
        }
      ],
      "payable": false,
      "stateMutability": "nonpayable",
      "type": "function"
    },
    {
      "constant": false,
      "inputs": [
        {
          "name": "_user",
          "type": "address"
        }
      ],
      "name": "onboard",
      "outputs": [
        {
          "name": "",
          "type": "bool"
        }
      ],
      "payable": false,
      "stateMutability": "nonpayable",
      "type": "function"
    },
    {
      "constant": false,
      "inputs": [
        {
          "name": "_user",
          "type": "address"
        }
      ],
      "name": "initiateRemoval",
      "outputs": [],
      "payable": false,
      "stateMutability": "nonpayable",
      "type": "function"
    },
    {
      "constant": false,
      "inputs": [
        {
          "name": "_user",
          "type": "address"
        }
      ],
      "name": "executeRemoval",
      "outputs": [
        {
          "name": "",
          "type": "bool"
        }
      ],
      "payable": false,
      "stateMutability": "nonpayable",
      "type": "function"
    },
    {
      "constant": false,
      "inputs": [
        {
          "name": "_account",
          "type": "address"
        },
        {
          "name": "_amount",
          "type": "uint256"
        },
        {
          "name": "_token",
          "type": "address"
        }
      ],
      "name": "initiateTransfer",
      "outputs": [],
      "payable": false,
      "stateMutability": "nonpayable",
      "type": "function"
    },
    {
      "constant": false,
      "inputs": [
        {
          "name": "_account",
          "type": "address"
        },
        {
          "name": "_amount",
          "type": "uint256"
        },
        {
          "name": "_token",
          "type": "address"
        }
      ],
      "name": "executeTransfer",
      "outputs": [
        {
          "name": "",
          "type": "bool"
        }
      ],
      "payable": false,
      "stateMutability": "nonpayable",
      "type": "function"
    },
    {
      "constant": true,
      "inputs": [
        {
          "name": "_user",
          "type": "address"
        }
      ],
      "name": "getDelegate",
      "outputs": [
        {
          "name": "",
          "type": "address"
        }
      ],
      "payable": false,
      "stateMutability": "view",
      "type": "function"
    },
    {
      "constant": true,
      "inputs": [
        {
          "name": "_user",
          "type": "address"
        }
      ],
      "name": "getDelegators",
      "outputs": [
        {
          "name": "",
          "type": "address[]"
        }
      ],
      "payable": false,
      "stateMutability": "view",
      "type": "function"
    },
    {
      "constant": true,
      "inputs": [
        {
          "name": "_user",
          "type": "address"
        }
      ],
      "name": "getVotes",
      "outputs": [
        {
          "name": "",
          "type": "uint256"
        }
      ],
      "payable": false,
      "stateMutability": "view",
      "type": "function"
    },
    {
      "constant": true,
      "inputs": [],
      "name": "getTotalUsers",
      "outputs": [
        {
          "name": "",
          "type": "uint256"
        }
      ],
      "payable": false,
      "stateMutability": "view",
      "type": "function"
    },
    {
      "constant": true,
      "inputs": [],
      "name": "getFraction",
      "outputs": [
        {
          "name": "",
          "type": "uint256"
        }
      ],
      "payable": false,
      "stateMutability": "view",
      "type": "function"
    },
    {
      "constant": false,
      "inputs": [
        {
          "name": "_voteID",
          "type": "bytes32"
        }
      ],
      "name": "queryVotes",
      "outputs": [],
      "payable": false,
      "stateMutability": "nonpayable",
      "type": "function"
    }
  ],
  "bytecode": "0x608060405234801561001057600080fd5b506040516020806121c083398101806040528101908080519060200190929190505050806000819055506001600760003373ffffffffffffffffffffffffffffffffffffffff1673ffffffffffffffffffffffffffffffffffffffff16815260200190815260200160002060006101000a81548160ff02191690831515021790555060013390806001815401808255809150509060018203906000526020600020016000909192909190916101000a81548173ffffffffffffffffffffffffffffffffffffffff021916908373ffffffffffffffffffffffffffffffffffffffff160217905550506001600460003373ffffffffffffffffffffffffffffffffffffffff1673ffffffffffffffffffffffffffffffffffffffff16815260200190815260200160002081905550506120738061014d6000396000f3006080604052600436106100c5576000357c0100000000000000000000000000000000000000000000000000000000900463ffffffff168063085115b7146100ca578063098dbf5c1461010d57806335154986146101925780634ca56282146101c3578063544d8564146101f457806368e7634614610277578063936ffe0f1461030f5780639ab24eb01461037c5780639be572f6146103d3578063a2c21e39146103fe578063ac637c7a14610459578063b0e088dd146104b4578063e8a0894b146104df575b600080fd5b3480156100d657600080fd5b5061010b600480360381019080803573ffffffffffffffffffffffffffffffffffffffff16906020019092919050505061053a565b005b34801561011957600080fd5b50610178600480360381019080803573ffffffffffffffffffffffffffffffffffffffff16906020019092919080359060200190929190803573ffffffffffffffffffffffffffffffffffffffff1690602001909291905050506106f2565b604051808215151515815260200191505060405180910390f35b34801561019e57600080fd5b506101c16004803603810190808035600019169060200190929190505050610af3565b005b3480156101cf57600080fd5b506101f26004803603810190808035600019169060200190929190505050610c3e565b005b34801561020057600080fd5b50610235600480360381019080803573ffffffffffffffffffffffffffffffffffffffff169060200190929190505050610e3c565b604051808273ffffffffffffffffffffffffffffffffffffffff1673ffffffffffffffffffffffffffffffffffffffff16815260200191505060405180910390f35b34801561028357600080fd5b506102b8600480360381019080803573ffffffffffffffffffffffffffffffffffffffff169060200190929190505050610ea5565b6040518080602001828103825283818151815260200191508051906020019060200280838360005b838110156102fb5780820151818401526020810190506102e0565b505050509050019250505060405180910390f35b34801561031b57600080fd5b5061037a600480360381019080803573ffffffffffffffffffffffffffffffffffffffff16906020019092919080359060200190929190803573ffffffffffffffffffffffffffffffffffffffff169060200190929190505050610f72565b005b34801561038857600080fd5b506103bd600480360381019080803573ffffffffffffffffffffffffffffffffffffffff1690602001909291905050506111b3565b6040518082815260200191505060405180910390f35b3480156103df57600080fd5b506103e86111fc565b6040518082815260200191505060405180910390f35b34801561040a57600080fd5b5061043f600480360381019080803573ffffffffffffffffffffffffffffffffffffffff169060200190929190505050611209565b604051808215151515815260200191505060405180910390f35b34801561046557600080fd5b5061049a600480360381019080803573ffffffffffffffffffffffffffffffffffffffff1690602001909291905050506113ff565b604051808215151515815260200191505060405180910390f35b3480156104c057600080fd5b506104c9611644565b6040518082815260200191505060405180910390f35b3480156104eb57600080fd5b50610520600480360381019080803573ffffffffffffffffffffffffffffffffffffffff169060200190929190505050611665565b604051808215151515815260200191505060405180910390f35b6000600760003373ffffffffffffffffffffffffffffffffffffffff1673ffffffffffffffffffffffffffffffffffffffff16815260200190815260200160002060009054906101000a900460ff16151561059457600080fd5b8160405160200180807f72656d6f766500000000000000000000000000000000000000000000000000008152506006018273ffffffffffffffffffffffffffffffffffffffff1673ffffffffffffffffffffffffffffffffffffffff166c010000000000000000000000000281526014019150506040516020818303038152906040526040518082805190602001908083835b60208310151561064c5780518252602082019150602081019050602083039250610627565b6001836020036101000a038019825116818451168082178552505050505050905001915050604051809103902090507f208e50ce5d5bb16c7f7e652835398bdc349126c964faea570c0fe2be6c0b8e5081836040518083600019166000191681526020018273ffffffffffffffffffffffffffffffffffffffff1673ffffffffffffffffffffffffffffffffffffffff1681526020019250505060405180910390a15050565b60008060008073ffffffffffffffffffffffffffffffffffffffff168673ffffffffffffffffffffffffffffffffffffffff161415151561073257600080fd5b85858560405160200180807f7472616e736665720000000000000000000000000000000000000000000000008152506008018473ffffffffffffffffffffffffffffffffffffffff1673ffffffffffffffffffffffffffffffffffffffff166c010000000000000000000000000281526014018381526020018273ffffffffffffffffffffffffffffffffffffffff1673ffffffffffffffffffffffffffffffffffffffff166c0100000000000000000000000002815260140193505050506040516020818303038152906040526040518082805190602001908083835b6020831015156108355780518252602082019150602081019050602083039250610810565b6001836020036101000a0380198251168184511680821785525050505050509050019150506040518091039020915060066000836000191660001916815260200190815260200160002060009054906101000a900460ff16151561089857600080fd5b60066000836000191660001916815260200190815260200160002060006101000a81549060ff0219169055600090505b6001805490508160ff16101561098957600560008360001916600019168152602001908152602001600020600060018360ff1681548110151561090757fe5b9060005260206000200160009054906101000a900473ffffffffffffffffffffffffffffffffffffffff1673ffffffffffffffffffffffffffffffffffffffff1673ffffffffffffffffffffffffffffffffffffffff16815260200190815260200160002060006101000a81549060ff021916905580806001019150506108c8565b600073ffffffffffffffffffffffffffffffffffffffff168673ffffffffffffffffffffffffffffffffffffffff161415610a0a578573ffffffffffffffffffffffffffffffffffffffff166108fc869081150290604051600060405180830381858888f19350505050158015610a04573d6000803e3d6000fd5b50610aea565b8373ffffffffffffffffffffffffffffffffffffffff1663a9059cbb87876040518363ffffffff167c0100000000000000000000000000000000000000000000000000000000028152600401808373ffffffffffffffffffffffffffffffffffffffff1673ffffffffffffffffffffffffffffffffffffffff16815260200182815260200192505050602060405180830381600087803b158015610aad57600080fd5b505af1158015610ac1573d6000803e3d6000fd5b505050506040513d6020811015610ad757600080fd5b8101908080519060200190929190505050505b50509392505050565b600760003373ffffffffffffffffffffffffffffffffffffffff1673ffffffffffffffffffffffffffffffffffffffff16815260200190815260200160002060009054906101000a900460ff161515610b4b57600080fd5b6000600260003373ffffffffffffffffffffffffffffffffffffffff1673ffffffffffffffffffffffffffffffffffffffff16815260200190815260200160002060006101000a81548173ffffffffffffffffffffffffffffffffffffffff021916908373ffffffffffffffffffffffffffffffffffffffff160217905550600160056000836000191660001916815260200190815260200160002060003373ffffffffffffffffffffffffffffffffffffffff1673ffffffffffffffffffffffffffffffffffffffff16815260200190815260200160002060006101000a81548160ff02191690831515021790555050565b60008060008060009350610c62600054600180549050611a8190919063ffffffff16565b9250600091505b6001805490508260ff161015610db1576004600060018460ff16815481101515610c8f57fe5b9060005260206000200160009054906101000a900473ffffffffffffffffffffffffffffffffffffffff1673ffffffffffffffffffffffffffffffffffffffff1673ffffffffffffffffffffffffffffffffffffffff168152602001908152602001600020549050600560008660001916600019168152602001908152602001600020600060018460ff16815481101515610d2657fe5b9060005260206000200160009054906101000a900473ffffffffffffffffffffffffffffffffffffffff1673ffffffffffffffffffffffffffffffffffffffff1673ffffffffffffffffffffffffffffffffffffffff16815260200190815260200160002060009054906101000a900460ff1615610da45780840193505b8180600101925050610c69565b7f570d731b715c476e2a6b3407d4ccce665267bd07050ffbfd80c4f0ae658e724585856040518083600019166000191681526020018281526020019250505060405180910390a182841115610e3557600160066000876000191660001916815260200190815260200160002060006101000a81548160ff0219169083151502179055505b5050505050565b6000600260008373ffffffffffffffffffffffffffffffffffffffff1673ffffffffffffffffffffffffffffffffffffffff16815260200190815260200160002060009054906101000a900473ffffffffffffffffffffffffffffffffffffffff169050919050565b6060600360008373ffffffffffffffffffffffffffffffffffffffff1673ffffffffffffffffffffffffffffffffffffffff168152602001908152602001600020805480602002602001604051908101604052809291908181526020018280548015610f6657602002820191906000526020600020905b8160009054906101000a900473ffffffffffffffffffffffffffffffffffffffff1673ffffffffffffffffffffffffffffffffffffffff1681526020019060010190808311610f1c575b50505050509050919050565b6000600760003373ffffffffffffffffffffffffffffffffffffffff1673ffffffffffffffffffffffffffffffffffffffff16815260200190815260200160002060009054906101000a900460ff161515610fcc57600080fd5b83838360405160200180807f7472616e736665720000000000000000000000000000000000000000000000008152506008018473ffffffffffffffffffffffffffffffffffffffff1673ffffffffffffffffffffffffffffffffffffffff166c010000000000000000000000000281526014018381526020018273ffffffffffffffffffffffffffffffffffffffff1673ffffffffffffffffffffffffffffffffffffffff166c0100000000000000000000000002815260140193505050506040516020818303038152906040526040518082805190602001908083835b6020831015156110cf57805182526020820191506020810190506020830392506110aa565b6001836020036101000a038019825116818451168082178552505050505050905001915050604051809103902090507f5bb37b073dcb23b3f36174979195c3214edcbf4966d488c328449934659398d4818585856040518085600019166000191681526020018473ffffffffffffffffffffffffffffffffffffffff1673ffffffffffffffffffffffffffffffffffffffff1681526020018381526020018273ffffffffffffffffffffffffffffffffffffffff1673ffffffffffffffffffffffffffffffffffffffff16815260200194505050505060405180910390a150505050565b6000600460008373ffffffffffffffffffffffffffffffffffffffff1673ffffffffffffffffffffffffffffffffffffffff168152602001908152602001600020549050919050565b6000600180549050905090565b60008073ffffffffffffffffffffffffffffffffffffffff168273ffffffffffffffffffffffffffffffffffffffff161415151561124657600080fd5b600760008373ffffffffffffffffffffffffffffffffffffffff1673ffffffffffffffffffffffffffffffffffffffff16815260200190815260200160002060009054906101000a900460ff1615151561129f57600080fd5b600760003373ffffffffffffffffffffffffffffffffffffffff1673ffffffffffffffffffffffffffffffffffffffff16815260200190815260200160002060009054906101000a900460ff1615156112f757600080fd5b6001600760008473ffffffffffffffffffffffffffffffffffffffff1673ffffffffffffffffffffffffffffffffffffffff16815260200190815260200160002060006101000a81548160ff02191690831515021790555060018290806001815401808255809150509060018203906000526020600020016000909192909190916101000a81548173ffffffffffffffffffffffffffffffffffffffff021916908373ffffffffffffffffffffffffffffffffffffffff160217905550506001600460008473ffffffffffffffffffffffffffffffffffffffff1673ffffffffffffffffffffffffffffffffffffffff16815260200190815260200160002081905550919050565b6000806000600760003373ffffffffffffffffffffffffffffffffffffffff1673ffffffffffffffffffffffffffffffffffffffff16815260200190815260200160002060009054906101000a900460ff16151561145c57600080fd5b600760008573ffffffffffffffffffffffffffffffffffffffff1673ffffffffffffffffffffffffffffffffffffffff16815260200190815260200160002060009054906101000a900460ff1615156114b457600080fd5b6114be3385611a9f565b91506114c933611c58565b905080600460008473ffffffffffffffffffffffffffffffffffffffff1673ffffffffffffffffffffffffffffffffffffffff1681526020019081526020016000206000828254019250508190555083600260003373ffffffffffffffffffffffffffffffffffffffff1673ffffffffffffffffffffffffffffffffffffffff16815260200190815260200160002060006101000a81548173ffffffffffffffffffffffffffffffffffffffff021916908373ffffffffffffffffffffffffffffffffffffffff160217905550600360008573ffffffffffffffffffffffffffffffffffffffff1673ffffffffffffffffffffffffffffffffffffffff1681526020019081526020016000203390806001815401808255809150509060018203906000526020600020016000909192909190916101000a81548173ffffffffffffffffffffffffffffffffffffffff021916908373ffffffffffffffffffffffffffffffffffffffff16021790555050600192505050919050565b6000611660600054600180549050611a8190919063ffffffff16565b905090565b60008060008360405160200180807f72656d6f766500000000000000000000000000000000000000000000000000008152506006018273ffffffffffffffffffffffffffffffffffffffff1673ffffffffffffffffffffffffffffffffffffffff166c010000000000000000000000000281526014019150506040516020818303038152906040526040518082805190602001908083835b60208310151561172257805182526020820191506020810190506020830392506116fd565b6001836020036101000a0380198251168184511680821785525050505050509050019150506040518091039020915060066000836000191660001916815260200190815260200160002060009054906101000a900460ff16151561178557600080fd5b600060066000846000191660001916815260200190815260200160002060006101000a81548160ff021916908315150217905550600090505b6001805490508160ff161015611a7657600560008360001916600019168152602001908152602001600020600060018360ff168154811015156117fd57fe5b9060005260206000200160009054906101000a900473ffffffffffffffffffffffffffffffffffffffff1673ffffffffffffffffffffffffffffffffffffffff1673ffffffffffffffffffffffffffffffffffffffff16815260200190815260200160002060006101000a81549060ff02191690558373ffffffffffffffffffffffffffffffffffffffff1660018260ff1681548110151561189b57fe5b9060005260206000200160009054906101000a900473ffffffffffffffffffffffffffffffffffffffff1673ffffffffffffffffffffffffffffffffffffffff161415611a695760006007600060018460ff168154811015156118fa57fe5b9060005260206000200160009054906101000a900473ffffffffffffffffffffffffffffffffffffffff1673ffffffffffffffffffffffffffffffffffffffff1673ffffffffffffffffffffffffffffffffffffffff16815260200190815260200160002060006101000a81548160ff02191690831515021790555060018080805490500381548110151561198b57fe5b9060005260206000200160009054906101000a900473ffffffffffffffffffffffffffffffffffffffff1660018260ff168154811015156119c857fe5b9060005260206000200160006101000a81548173ffffffffffffffffffffffffffffffffffffffff021916908373ffffffffffffffffffffffffffffffffffffffff160217905550600180808054905003815481101515611a2557fe5b9060005260206000200160006101000a81549073ffffffffffffffffffffffffffffffffffffffff02191690556001805480919060019003611a679190611ff6565b505b80806001019150506117be565b600192505050919050565b6000611a97611a908484611cca565b6064611d05565b905092915050565b6000808273ffffffffffffffffffffffffffffffffffffffff168473ffffffffffffffffffffffffffffffffffffffff1614151515611b46576040517f08c379a000000000000000000000000000000000000000000000000000000000815260040180806020018281038252601f8152602001807f55682d6f682c20776520676f7420616e20696e66696e697465206c6f6f70210081525060200191505060405180910390fd5b600073ffffffffffffffffffffffffffffffffffffffff16600260008573ffffffffffffffffffffffffffffffffffffffff1673ffffffffffffffffffffffffffffffffffffffff16815260200190815260200160002060009054906101000a900473ffffffffffffffffffffffffffffffffffffffff1673ffffffffffffffffffffffffffffffffffffffff161415611be257829050611c4e565b611c4b84600260008673ffffffffffffffffffffffffffffffffffffffff1673ffffffffffffffffffffffffffffffffffffffff16815260200190815260200160002060009054906101000a900473ffffffffffffffffffffffffffffffffffffffff16611a9f565b90505b8091505092915050565b6000806000611c6684611d1b565b9150611c7184611e2e565b905080600460008473ffffffffffffffffffffffffffffffffffffffff1673ffffffffffffffffffffffffffffffffffffffff168152602001908152602001600020600082825403925050819055508092505050919050565b6000806000841415611cdf5760009150611cfe565b8284029050828482811515611cf057fe5b04141515611cfa57fe5b8091505b5092915050565b60008183811515611d1257fe5b04905092915050565b600080600073ffffffffffffffffffffffffffffffffffffffff16600260008573ffffffffffffffffffffffffffffffffffffffff1673ffffffffffffffffffffffffffffffffffffffff16815260200190815260200160002060009054906101000a900473ffffffffffffffffffffffffffffffffffffffff1673ffffffffffffffffffffffffffffffffffffffff161415611dba57829050611e25565b611e22600260008573ffffffffffffffffffffffffffffffffffffffff1673ffffffffffffffffffffffffffffffffffffffff16815260200190815260200160002060009054906101000a900473ffffffffffffffffffffffffffffffffffffffff16611d1b565b90505b80915050919050565b600080600060019150600090505b600360008573ffffffffffffffffffffffffffffffffffffffff1673ffffffffffffffffffffffffffffffffffffffff168152602001908152602001600020805490508160ff161015611fec57600060036000600360008873ffffffffffffffffffffffffffffffffffffffff1673ffffffffffffffffffffffffffffffffffffffff1681526020019081526020016000208460ff16815481101515611ede57fe5b9060005260206000200160009054906101000a900473ffffffffffffffffffffffffffffffffffffffff1673ffffffffffffffffffffffffffffffffffffffff1673ffffffffffffffffffffffffffffffffffffffff168152602001908152602001600020805490501415611f5857600182019150611fdf565b611fda600360008673ffffffffffffffffffffffffffffffffffffffff1673ffffffffffffffffffffffffffffffffffffffff1681526020019081526020016000208260ff16815481101515611faa57fe5b9060005260206000200160009054906101000a900473ffffffffffffffffffffffffffffffffffffffff16611e2e565b820191505b8080600101915050611e3c565b8192505050919050565b81548183558181111561201d5781836000526020600020918201910161201c9190612022565b5b505050565b61204491905b80821115612040576000816000905550600101612028565b5090565b905600a165627a7a723058204517b626cbe8a50f19ab49ec4129bf723c8c5fdd73492e5895db46b3664c1ea80029",
  "source": "pragma solidity ^0.4.24;\n\nimport \"./SafeMath.sol\";\nimport \"./ERC20.sol\";\n\ncontract LiquidDAO{\n  using SafeMath for uint256;\n\n  uint threshold;\n  address[] private users;\n  mapping(address => address) private delegate; //For a given address, who do they delgate to\n  mapping(address => address[]) private delegators; //For a given address, who delegates to them\n  mapping(address => uint) private userVotes; //How many votes a user controls\n  mapping(bytes32 => mapping(address => bool)) private vote; //A mapping of voting issues and who has voted for them\n  mapping(bytes32 => bool) private successful; //A mapping of which votes have crossed the threshold and can be executed\n  mapping(address => bool) private auth; //A mapping of who is authorized in the organization\n\n  constructor(uint _threshold) public {\n    threshold = _threshold;\n    auth[msg.sender] = true;\n    users.push(msg.sender);\n    userVotes[msg.sender] = 1;\n  }\n\n  function voteFor(bytes32 _voteID)\n  external {\n    require(auth[msg.sender]);\n    delegate[msg.sender] = address(0);\n    vote[_voteID][msg.sender] = true;\n  }\n\n  function delegateTo(address _user)\n  external\n  returns (bool){\n    require(auth[msg.sender]);\n    require(auth[_user]);\n    address topDelegate = checkDelegate(msg.sender, _user);\n    uint votes = removeCurrentDelegateVotes(msg.sender);\n    userVotes[topDelegate] += votes;\n    delegate[msg.sender] = _user;\n    delegators[_user].push(msg.sender);\n    return true;\n  }\n\n  function checkDelegate(address _user, address _delegate)\n  private\n  returns (address) {\n    require(_user != _delegate, 'Uh-oh, we got an infinite loop!');\n    address topDelegate;\n    if(delegate[_delegate] == address(0)){\n      topDelegate = _delegate;\n    } else {\n      topDelegate = checkDelegate(_user, delegate[_delegate]);\n    }\n    return topDelegate;\n  }\n\n  function removeCurrentDelegateVotes(address _user)\n  private\n  returns(uint){\n    address currentDelegate = getTopDelegate(_user);\n    uint currentVotesControlled = getCurrentVoteControl(_user);\n    userVotes[currentDelegate] -= currentVotesControlled;\n    return currentVotesControlled;\n  }\n\n  function getTopDelegate(address _user)\n  private\n  returns(address){\n    address topDelegate;\n    if(delegate[_user] == address(0)){\n      topDelegate = _user;\n    } else {\n      topDelegate = getTopDelegate(delegate[_user]);\n    }\n    return topDelegate;\n  }\n\n  function getCurrentVoteControl(address _user)\n  private\n  returns(uint){\n    uint voteCount = 1;\n    for(uint8 i=0; i<delegators[_user].length; i++){\n      if(delegators[delegators[_user][i]].length == 0){\n        voteCount += 1;\n      } else {\n        voteCount += getCurrentVoteControl(delegators[_user][i]);\n      }\n    }\n    return voteCount;\n  }\n\n  function onboard(address _user)\n  external\n  returns (bool){\n    require(_user != address(0));\n    require(!auth[_user]);\n    require(auth[msg.sender]);\n    auth[_user] = true;\n    users.push(_user);\n    userVotes[_user] = 1;\n  }\n\n  function initiateRemoval(address _user)\n  external {\n    require(auth[msg.sender]);\n    bytes32 voteID = keccak256(abi.encodePacked(\"remove\", _user));\n    emit logVoteToRemove(voteID, _user);\n  }\n\n  function executeRemoval(address _user)\n  external\n  returns (bool){\n    ///*******************************///\n    ///!!MUST ADJUST DELEGATE VOTES!!!///\n    ///*******************************///\n    bytes32 voteID = keccak256(abi.encodePacked(\"remove\", _user));\n    require(successful[voteID]);\n    successful[voteID] = false;\n    for(uint8 i=0; i<users.length; i++){\n      delete vote[voteID][users[i]];\n      if(users[i] == _user){\n        auth[users[i]] = false;\n        users[i] = users[users.length-1];\n        delete users[users.length-1];\n        users.length--;\n      }\n    }\n    return true;\n  }\n\n  //Pass address(0) if you want to send ether, or the token contract address if you want to send ERC20\n  function initiateTransfer(address _account, uint _amount, address _token)\n  external {\n    require(auth[msg.sender]);\n    bytes32 voteID = keccak256(abi.encodePacked(\"transfer\", _account, _amount, _token));\n    emit logVoteToTransfer(voteID, _account, _amount, _token);\n  }\n\n  function executeTransfer(address _account, uint _amount, address _token)\n  external\n  returns (bool){\n    require(_account != address(0));\n    bytes32 voteID = keccak256(abi.encodePacked(\"transfer\", _account, _amount, _token));\n    require(successful[voteID]);\n    delete successful[voteID];\n    for(uint8 i=0; i<users.length; i++){\n      delete vote[voteID][users[i]];\n    }\n    if(_account == address(0)){\n      //If address = 0, transfer ethereum\n      _account.transfer(_amount);\n    } else {\n      ERC20(_token).transfer(_account, _amount);\n    }\n  }\n\n  function getDelegate(address _user)\n  external\n  view\n  returns(address){\n    return delegate[_user];\n  }\n\n  function getDelegators(address _user)\n  external\n  view\n  returns(address[]){\n    return delegators[_user];\n  }\n\n  function getVotes(address _user)\n  external\n  view\n  returns(uint){\n    return userVotes[_user];\n  }\n\n  function getTotalUsers()\n  external\n  view\n  returns(uint){\n    return users.length;\n  }\n\n  function getFraction()\n  external\n  view\n  returns(uint){\n    return users.length.getFractionalAmount(threshold);\n  }\n/***TALLY VOTES****************************************************/\n  function queryVotes(bytes32 _voteID)\n  external{\n    uint voteCount = 0;\n    uint fraction = uint256(users.length).getFractionalAmount(threshold);\n    for(uint8 i=0; i<users.length; i++){\n      uint votes = userVotes[users[i]];\n      if(vote[_voteID][users[i]]){\n        voteCount += votes;\n      }\n    }\n    emit logVoteCount(_voteID, voteCount);\n    if(voteCount > fraction){\n      successful[_voteID] = true;\n    }\n  }\n\n/* Get out of gas even in small groups\n  function queryVotes(bytes32 _voteID)\n  external\n  returns (bool){\n    uint voteCount = tallyVotesRecursive(_voteID, users);\n    uint fraction = uint256(users.length).getFractionalAmount(threshold);\n    if(voteCount >= fraction){\n      successful[_voteID] = true;\n      return true;\n    } else {\n      return false;\n    }\n  }\n\n  function tallyVotesRecursive(bytes32 _voteID, address[] _votersToTally)\n  private\n  returns (uint){\n    require(_votersToTally.length <= 50);\n    address[] delegates;\n    uint voteCount = 0;\n    for(uint8 i=0; i<_votersToTally.length; i++){\n      //Add direct votes\n      if(delegate[_votersToTally[i]] == address(0)){\n        if(vote[_voteID][_votersToTally[i]]){\n          voteCount++;\n        }\n      } else {\n        delegates[delegates.length] = delegate[_votersToTally[i]];\n      }\n    }\n    if(delegates.length > 0){\n      voteCount += tallyVotesRecursive(_voteID, delegates);\n    }\n    return voteCount;\n  }\n*/\n\n  event logVoteCount(bytes32 voteID, uint count);\n  event logVoteToRemove(bytes32 voteID, address user);\n  event logVoteToTransfer(bytes32 voteID, address account, uint amount, address token);\n\n}\n",
  "sourcePath": "/home/dog/code/peterkyle/liquiddemocracy/liquid-democracy/contracts/LiquidDAO.sol",
  "compiler": {
    "name": "solc",
    "version": "0.4.24+commit.e67f0147.Emscripten.clang"
  },
  "schemaVersion": "2.0.1",
  "updatedAt": "2018-10-16T08:47:09.482Z"
}