{
  "contractName": "LiquidDAOAlternative",
  "abi": [
    {
      "constant": true,
      "inputs": [],
      "name": "numUsers",
      "outputs": [
        {
          "name": "",
          "type": "uint128"
        }
      ],
      "payable": false,
      "stateMutability": "view",
      "type": "function"
    },
    {
      "constant": true,
      "inputs": [
        {
          "name": "",
          "type": "address"
        }
      ],
      "name": "tree",
      "outputs": [
        {
          "name": "top",
          "type": "address"
        },
        {
          "name": "votePower",
          "type": "uint16"
        }
      ],
      "payable": false,
      "stateMutability": "view",
      "type": "function"
    },
    {
      "inputs": [
        {
          "name": "_threshold",
          "type": "uint8"
        }
      ],
      "payable": false,
      "stateMutability": "nonpayable",
      "type": "constructor"
    },
    {
      "anonymous": false,
      "inputs": [
        {
          "indexed": false,
          "name": "voteID",
          "type": "bytes32"
        },
        {
          "indexed": false,
          "name": "count",
          "type": "uint256"
        }
      ],
      "name": "logVoteCount",
      "type": "event"
    },
    {
      "anonymous": false,
      "inputs": [
        {
          "indexed": false,
          "name": "voteID",
          "type": "bytes32"
        },
        {
          "indexed": false,
          "name": "user",
          "type": "address"
        }
      ],
      "name": "logVoteToRemove",
      "type": "event"
    },
    {
      "anonymous": false,
      "inputs": [
        {
          "indexed": false,
          "name": "voteID",
          "type": "bytes32"
        },
        {
          "indexed": false,
          "name": "account",
          "type": "address"
        },
        {
          "indexed": false,
          "name": "amount",
          "type": "uint256"
        },
        {
          "indexed": false,
          "name": "token",
          "type": "address"
        }
      ],
      "name": "logVoteToTransfer",
      "type": "event"
    },
    {
      "constant": false,
      "inputs": [
        {
          "name": "_voteID",
          "type": "bytes32"
        }
      ],
      "name": "voteFor",
      "outputs": [],
      "payable": false,
      "stateMutability": "nonpayable",
      "type": "function"
    },
    {
      "constant": false,
      "inputs": [
        {
          "name": "_user",
          "type": "address"
        }
      ],
      "name": "delegateTo",
      "outputs": [
        {
          "name": "",
          "type": "bool"
        }
      ],
      "payable": false,
      "stateMutability": "nonpayable",
      "type": "function"
    },
    {
      "constant": false,
      "inputs": [
        {
          "name": "_user",
          "type": "address"
        }
      ],
      "name": "onboard",
      "outputs": [
        {
          "name": "",
          "type": "bool"
        }
      ],
      "payable": false,
      "stateMutability": "nonpayable",
      "type": "function"
    },
    {
      "constant": false,
      "inputs": [
        {
          "name": "_user",
          "type": "address"
        }
      ],
      "name": "initiateRemoval",
      "outputs": [],
      "payable": false,
      "stateMutability": "nonpayable",
      "type": "function"
    },
    {
      "constant": false,
      "inputs": [
        {
          "name": "_user",
          "type": "address"
        }
      ],
      "name": "executeRemoval",
      "outputs": [
        {
          "name": "",
          "type": "bool"
        }
      ],
      "payable": false,
      "stateMutability": "nonpayable",
      "type": "function"
    },
    {
      "constant": false,
      "inputs": [
        {
          "name": "_account",
          "type": "address"
        },
        {
          "name": "_amount",
          "type": "uint256"
        },
        {
          "name": "_token",
          "type": "address"
        }
      ],
      "name": "initiateTransfer",
      "outputs": [],
      "payable": false,
      "stateMutability": "nonpayable",
      "type": "function"
    },
    {
      "constant": false,
      "inputs": [
        {
          "name": "_account",
          "type": "address"
        },
        {
          "name": "_amount",
          "type": "uint256"
        },
        {
          "name": "_token",
          "type": "address"
        }
      ],
      "name": "executeTransfer",
      "outputs": [
        {
          "name": "",
          "type": "bool"
        }
      ],
      "payable": false,
      "stateMutability": "nonpayable",
      "type": "function"
    }
  ],
  "bytecode": "0x608060405234801561001057600080fd5b50604051602080611c0f83398101806040528101908080519060200190929190505050600060648260ff1610151561004757600080fd5b81600360006101000a81548160ff021916908360ff16021790555060018060003373ffffffffffffffffffffffffffffffffffffffff1673ffffffffffffffffffffffffffffffffffffffff16815260200190815260200160002060006101000a81548160ff0219169083151502179055506000803373ffffffffffffffffffffffffffffffffffffffff1673ffffffffffffffffffffffffffffffffffffffff168152602001908152602001600020905060018160020160006101000a81548161ffff021916908361ffff1602179055505050611ae58061012a6000396000f300608060405260043610610099576000357c0100000000000000000000000000000000000000000000000000000000900463ffffffff168063085115b71461009e578063098dbf5c146100e157806319a50f491461016657806335154986146101b5578063936ffe0f146101e6578063a2c21e3914610253578063ac637c7a146102ae578063e8a0894b14610309578063f724036214610364575b600080fd5b3480156100aa57600080fd5b506100df600480360381019080803573ffffffffffffffffffffffffffffffffffffffff1690602001909291905050506103f6565b005b3480156100ed57600080fd5b5061014c600480360381019080803573ffffffffffffffffffffffffffffffffffffffff16906020019092919080359060200190929190803573ffffffffffffffffffffffffffffffffffffffff1690602001909291905050506105ae565b604051808215151515815260200191505060405180910390f35b34801561017257600080fd5b5061017b610980565b60405180826fffffffffffffffffffffffffffffffff166fffffffffffffffffffffffffffffffff16815260200191505060405180910390f35b3480156101c157600080fd5b506101e460048036038101908080356000191690602001909291905050506109a2565b005b3480156101f257600080fd5b50610251600480360381019080803573ffffffffffffffffffffffffffffffffffffffff16906020019092919080359060200190929190803573ffffffffffffffffffffffffffffffffffffffff169060200190929190505050610b5f565b005b34801561025f57600080fd5b50610294600480360381019080803573ffffffffffffffffffffffffffffffffffffffff169060200190929190505050610da0565b604051808215151515815260200191505060405180910390f35b3480156102ba57600080fd5b506102ef600480360381019080803573ffffffffffffffffffffffffffffffffffffffff169060200190929190505050610fac565b604051808215151515815260200191505060405180910390f35b34801561031557600080fd5b5061034a600480360381019080803573ffffffffffffffffffffffffffffffffffffffff169060200190929190505050611265565b604051808215151515815260200191505060405180910390f35b34801561037057600080fd5b506103a5600480360381019080803573ffffffffffffffffffffffffffffffffffffffff169060200190929190505050611689565b604051808373ffffffffffffffffffffffffffffffffffffffff1673ffffffffffffffffffffffffffffffffffffffff1681526020018261ffff1661ffff1681526020019250505060405180910390f35b6000600160003373ffffffffffffffffffffffffffffffffffffffff1673ffffffffffffffffffffffffffffffffffffffff16815260200190815260200160002060009054906101000a900460ff16151561045057600080fd5b8160405160200180807f72656d6f766500000000000000000000000000000000000000000000000000008152506006018273ffffffffffffffffffffffffffffffffffffffff1673ffffffffffffffffffffffffffffffffffffffff166c010000000000000000000000000281526014019150506040516020818303038152906040526040518082805190602001908083835b60208310151561050857805182526020820191506020810190506020830392506104e3565b6001836020036101000a038019825116818451168082178552505050505050905001915050604051809103902090507f208e50ce5d5bb16c7f7e652835398bdc349126c964faea570c0fe2be6c0b8e5081836040518083600019166000191681526020018273ffffffffffffffffffffffffffffffffffffffff1673ffffffffffffffffffffffffffffffffffffffff1681526020019250505060405180910390a15050565b600080600073ffffffffffffffffffffffffffffffffffffffff168573ffffffffffffffffffffffffffffffffffffffff16141515156105ed57600080fd5b84848460405160200180807f7472616e736665720000000000000000000000000000000000000000000000008152506008018473ffffffffffffffffffffffffffffffffffffffff1673ffffffffffffffffffffffffffffffffffffffff166c010000000000000000000000000281526014018381526020018273ffffffffffffffffffffffffffffffffffffffff1673ffffffffffffffffffffffffffffffffffffffff166c0100000000000000000000000002815260140193505050506040516020818303038152906040526040518082805190602001908083835b6020831015156106f057805182526020820191506020810190506020830392506106cb565b6001836020036101000a03801982511681845116808217855250505050505090500191505060405180910390209050600360009054906101000a900460ff1660ff166107d1600360019054906101000a90046fffffffffffffffffffffffffffffffff166fffffffffffffffffffffffffffffffff166107c3606460026000876000191660001916815260200190815260200160002060009054906101000a90046fffffffffffffffffffffffffffffffff166fffffffffffffffffffffffffffffffff166116db90919063ffffffff16565b61171690919063ffffffff16565b1115156107dd57600080fd5b60026000826000191660001916815260200190815260200160002060006101000a8154906fffffffffffffffffffffffffffffffff0219169055600073ffffffffffffffffffffffffffffffffffffffff168373ffffffffffffffffffffffffffffffffffffffff161415610898578473ffffffffffffffffffffffffffffffffffffffff166108fc859081150290604051600060405180830381858888f19350505050158015610892573d6000803e3d6000fd5b50610978565b8273ffffffffffffffffffffffffffffffffffffffff1663a9059cbb86866040518363ffffffff167c0100000000000000000000000000000000000000000000000000000000028152600401808373ffffffffffffffffffffffffffffffffffffffff1673ffffffffffffffffffffffffffffffffffffffff16815260200182815260200192505050602060405180830381600087803b15801561093b57600080fd5b505af115801561094f573d6000803e3d6000fd5b505050506040513d602081101561096557600080fd5b8101908080519060200190929190505050505b509392505050565b600360019054906101000a90046fffffffffffffffffffffffffffffffff1681565b600160003373ffffffffffffffffffffffffffffffffffffffff1673ffffffffffffffffffffffffffffffffffffffff16815260200190815260200160002060009054906101000a900460ff1615156109fa57600080fd5b600073ffffffffffffffffffffffffffffffffffffffff166000803373ffffffffffffffffffffffffffffffffffffffff1673ffffffffffffffffffffffffffffffffffffffff16815260200190815260200160002060000160009054906101000a900473ffffffffffffffffffffffffffffffffffffffff1673ffffffffffffffffffffffffffffffffffffffff16141515610a9657600080fd5b6000803373ffffffffffffffffffffffffffffffffffffffff1673ffffffffffffffffffffffffffffffffffffffff16815260200190815260200160002060020160009054906101000a900461ffff1661ffff1660026000836000191660001916815260200190815260200160002060008282829054906101000a90046fffffffffffffffffffffffffffffffff160192506101000a8154816fffffffffffffffffffffffffffffffff02191690836fffffffffffffffffffffffffffffffff16021790555050565b6000600160003373ffffffffffffffffffffffffffffffffffffffff1673ffffffffffffffffffffffffffffffffffffffff16815260200190815260200160002060009054906101000a900460ff161515610bb957600080fd5b83838360405160200180807f7472616e736665720000000000000000000000000000000000000000000000008152506008018473ffffffffffffffffffffffffffffffffffffffff1673ffffffffffffffffffffffffffffffffffffffff166c010000000000000000000000000281526014018381526020018273ffffffffffffffffffffffffffffffffffffffff1673ffffffffffffffffffffffffffffffffffffffff166c0100000000000000000000000002815260140193505050506040516020818303038152906040526040518082805190602001908083835b602083101515610cbc5780518252602082019150602081019050602083039250610c97565b6001836020036101000a038019825116818451168082178552505050505050905001915050604051809103902090507f5bb37b073dcb23b3f36174979195c3214edcbf4966d488c328449934659398d4818585856040518085600019166000191681526020018473ffffffffffffffffffffffffffffffffffffffff1673ffffffffffffffffffffffffffffffffffffffff1681526020018381526020018273ffffffffffffffffffffffffffffffffffffffff1673ffffffffffffffffffffffffffffffffffffffff16815260200194505050505060405180910390a150505050565b600080600073ffffffffffffffffffffffffffffffffffffffff168373ffffffffffffffffffffffffffffffffffffffff1614151515610ddf57600080fd5b600160008473ffffffffffffffffffffffffffffffffffffffff1673ffffffffffffffffffffffffffffffffffffffff16815260200190815260200160002060009054906101000a900460ff16151515610e3857600080fd5b600160003373ffffffffffffffffffffffffffffffffffffffff1673ffffffffffffffffffffffffffffffffffffffff16815260200190815260200160002060009054906101000a900460ff161515610e9057600080fd5b60018060008573ffffffffffffffffffffffffffffffffffffffff1673ffffffffffffffffffffffffffffffffffffffff16815260200190815260200160002060006101000a81548160ff0219169083151502179055506000808473ffffffffffffffffffffffffffffffffffffffff1673ffffffffffffffffffffffffffffffffffffffff168152602001908152602001600020905060018160020160006101000a81548161ffff021916908361ffff1602179055506003600181819054906101000a90046fffffffffffffffffffffffffffffffff168092919060010191906101000a8154816fffffffffffffffffffffffffffffffff02191690836fffffffffffffffffffffffffffffffff1602179055505050919050565b6000806000600160003373ffffffffffffffffffffffffffffffffffffffff1673ffffffffffffffffffffffffffffffffffffffff16815260200190815260200160002060009054906101000a900460ff16151561100957600080fd5b600160008573ffffffffffffffffffffffffffffffffffffffff1673ffffffffffffffffffffffffffffffffffffffff16815260200190815260200160002060009054906101000a900460ff16151561106157600080fd5b6000808573ffffffffffffffffffffffffffffffffffffffff1673ffffffffffffffffffffffffffffffffffffffff16815260200190815260200160002091506000803373ffffffffffffffffffffffffffffffffffffffff1673ffffffffffffffffffffffffffffffffffffffff1681526020019081526020016000209050600073ffffffffffffffffffffffffffffffffffffffff168160000160009054906101000a900473ffffffffffffffffffffffffffffffffffffffff1673ffffffffffffffffffffffffffffffffffffffff1614151561116b576111698160000160009054906101000a900473ffffffffffffffffffffffffffffffffffffffff163361172c565b505b838160000160006101000a81548173ffffffffffffffffffffffffffffffffffffffff021916908373ffffffffffffffffffffffffffffffffffffffff160217905550816001013390806001815401808255809150509060018203906000526020600020016000909192909190916101000a81548173ffffffffffffffffffffffffffffffffffffffff021916908373ffffffffffffffffffffffffffffffffffffffff160217905550508060020160009054906101000a900461ffff168260020160008282829054906101000a900461ffff160192506101000a81548161ffff021916908361ffff160217905550600192505050919050565b600080600160008473ffffffffffffffffffffffffffffffffffffffff1673ffffffffffffffffffffffffffffffffffffffff16815260200190815260200160002060009054906101000a900460ff1615156112c057600080fd5b8260405160200180807f72656d6f766500000000000000000000000000000000000000000000000000008152506006018273ffffffffffffffffffffffffffffffffffffffff1673ffffffffffffffffffffffffffffffffffffffff166c010000000000000000000000000281526014019150506040516020818303038152906040526040518082805190602001908083835b6020831015156113785780518252602082019150602081019050602083039250611353565b6001836020036101000a03801982511681845116808217855250505050505090500191505060405180910390209050600360009054906101000a900460ff1660ff16611459600360019054906101000a90046fffffffffffffffffffffffffffffffff166fffffffffffffffffffffffffffffffff1661144b606460026000876000191660001916815260200190815260200160002060009054906101000a90046fffffffffffffffffffffffffffffffff166fffffffffffffffffffffffffffffffff166116db90919063ffffffff16565b61171690919063ffffffff16565b11151561146557600080fd5b600073ffffffffffffffffffffffffffffffffffffffff166000808573ffffffffffffffffffffffffffffffffffffffff1673ffffffffffffffffffffffffffffffffffffffff16815260200190815260200160002060000160009054906101000a900473ffffffffffffffffffffffffffffffffffffffff1673ffffffffffffffffffffffffffffffffffffffff16141515611569576115676000808573ffffffffffffffffffffffffffffffffffffffff1673ffffffffffffffffffffffffffffffffffffffff16815260200190815260200160002060000160009054906101000a900473ffffffffffffffffffffffffffffffffffffffff168461172c565b505b6000808473ffffffffffffffffffffffffffffffffffffffff1673ffffffffffffffffffffffffffffffffffffffff168152602001908152602001600020600080820160006101000a81549073ffffffffffffffffffffffffffffffffffffffff02191690556001820160006115df9190611a47565b6002820160006101000a81549061ffff02191690555050600160008473ffffffffffffffffffffffffffffffffffffffff1673ffffffffffffffffffffffffffffffffffffffff16815260200190815260200160002060006101000a81549060ff021916905560026000826000191660001916815260200190815260200160002060006101000a8154906fffffffffffffffffffffffffffffffff02191690556001915050919050565b60006020528060005260406000206000915090508060000160009054906101000a900473ffffffffffffffffffffffffffffffffffffffff16908060020160009054906101000a900461ffff16905082565b60008060008414156116f0576000915061170f565b828402905082848281151561170157fe5b0414151561170b57fe5b8091505b5092915050565b6000818381151561172357fe5b04905092915050565b6000806000806000808773ffffffffffffffffffffffffffffffffffffffff1673ffffffffffffffffffffffffffffffffffffffff1681526020019081526020016000209250826001018054905091508260000160009054906101000a900473ffffffffffffffffffffffffffffffffffffffff169550600090505b818161ffff161015611925578473ffffffffffffffffffffffffffffffffffffffff16836001018261ffff168154811015156117e057fe5b9060005260206000200160009054906101000a900473ffffffffffffffffffffffffffffffffffffffff1673ffffffffffffffffffffffffffffffffffffffff16141561191857826001016001830381548110151561183b57fe5b9060005260206000200160009054906101000a900473ffffffffffffffffffffffffffffffffffffffff16836001018261ffff1681548110151561187b57fe5b9060005260206000200160006101000a81548173ffffffffffffffffffffffffffffffffffffffff021916908373ffffffffffffffffffffffffffffffffffffffff160217905550826001018054809190600190036118da9190611a68565b5082600201600081819054906101000a900461ffff16809291906001900391906101000a81548161ffff021916908361ffff16021790555050611925565b80806001019150506117a8565b5b600073ffffffffffffffffffffffffffffffffffffffff168673ffffffffffffffffffffffffffffffffffffffff16141515611a3a576000808773ffffffffffffffffffffffffffffffffffffffff1673ffffffffffffffffffffffffffffffffffffffff168152602001908152602001600020600201600081819054906101000a900461ffff16809291906001900391906101000a81548161ffff021916908361ffff160217905550506000808773ffffffffffffffffffffffffffffffffffffffff1673ffffffffffffffffffffffffffffffffffffffff16815260200190815260200160002060000160009054906101000a900473ffffffffffffffffffffffffffffffffffffffff169550611926565b6001935050505092915050565b5080546000825590600052602060002090810190611a659190611a94565b50565b815481835581811115611a8f57818360005260206000209182019101611a8e9190611a94565b5b505050565b611ab691905b80821115611ab2576000816000905550600101611a9a565b5090565b905600a165627a7a72305820b9e1fffc5e1c48bcaa7ade9633f75eef980658cb44ff1e81aa8191633b2aa7260029",
  "source": "pragma solidity ^0.4.24;\n\nimport \"./SafeMath.sol\";\nimport \"./ERC20.sol\";\n\ncontract LiquidDAOAlternative{\n  using SafeMath for *;\n\n  // address[] private users;\n  // mapping(address => address) private delegate; //For a given address, who do they delgate to\n  // mapping(address => address[]) private delegators; //For a given address, who delegates to them\n  // mapping(address => uint) private userVotes; //How many votes a user controls\n  // mapping(bytes32 => bool) private successful; //A mapping of which votes have crossed the threshold and can be executed\n\n  struct DelegateTree {\n    address top;\n    address[] down;   // vote power of this tree is the length of this list\n    uint16 votePower;   // tree cannot have more than 2^32 votes (65536)\n  }\n\n  mapping (address => DelegateTree) public tree;   // Every user is the top of their own tree\n\n  mapping(address => bool) private auth; //A mapping of who is authorized in the organization\n  mapping(bytes32 => uint128) private vote; //A mapping of voting issues and who has voted for them\n  uint8 threshold;\n  uint128 public numUsers;   // can't have more than 2^128 users\n\n\n  constructor(uint8 _threshold) public {\n    require(_threshold < 100);\n    threshold = _threshold;\n    auth[msg.sender] = true;\n    DelegateTree storage firstTree = tree[msg.sender];\n    firstTree.votePower = 1;\n  }\n\n  function voteFor(bytes32 _voteID)\n  external {\n    require(auth[msg.sender]);\n    require(tree[msg.sender].top == address(0));   // only top delegate can vote\n    vote[_voteID] += tree[msg.sender].votePower;\n  }\n\n  function delegateTo(address _user)\n  external\n  returns (bool){\n    require(auth[msg.sender]);\n    require(auth[_user]);\n    DelegateTree storage treeToJoin = tree[_user];\n    DelegateTree storage senderTree = tree[msg.sender];\n    // If this runs out of gas, call removeDelegate in it's own transaction\n    if (senderTree.top != address(0)){\n      removeDelegate(senderTree.top, msg.sender);\n    }\n    senderTree.top = _user;\n    treeToJoin.down.push(msg.sender);\n    treeToJoin.votePower += senderTree.votePower;\n    return true;\n  }\n\n  // @notice removes _delegator from the\n  // @dev moves up trees removing 1 vote power\n  function removeDelegate(address _top, address _delegator)\n  internal\n  returns (bool) {\n    DelegateTree storage oldDelegate = tree[_top];\n    uint numDelegators = oldDelegate.down.length;\n    _top = oldDelegate.top;\n    for (uint16 i =0; i < numDelegators; i++){\n      if (oldDelegate.down[i] == _delegator) {\n        oldDelegate.down[i] = oldDelegate.down[numDelegators - 1];\n        oldDelegate.down.length--;\n        oldDelegate.votePower--;\n        break;\n      }\n    }\n    while (_top != address(0)) {\n      tree[_top].votePower--;\n      _top = tree[_top].top;\n    }\n    return true;\n  }\n\n  // TODO: move down tree and delete tree[delegator].top\n  function removeDelegators(address _top)\n  internal\n  returns (bool) {\n    return true;\n  }\n\n  function onboard(address _user)\n  external\n  returns (bool){\n    require(_user != address(0));\n    require(!auth[_user]);\n    require(auth[msg.sender]);\n    auth[_user] = true;\n    DelegateTree storage newTree = tree[_user];\n    newTree.votePower = 1;\n    numUsers++;\n  }\n\n  // Not mandatory to have this...can add event in vote function\n  function initiateRemoval(address _user)\n  external {\n    require(auth[msg.sender]);\n    bytes32 voteID = keccak256(abi.encodePacked(\"remove\", _user));\n    emit logVoteToRemove(voteID, _user);\n  }\n\n  function executeRemoval(address _user)\n  external\n  returns (bool){\n    require(auth[_user]);\n    bytes32 voteID = keccak256(abi.encodePacked(\"remove\", _user));\n    require(vote[voteID].mul(100).div(numUsers) > threshold);\n    if (tree[_user].top != address(0)){\n      removeDelegate(tree[_user].top, _user);\n    }\n    // TODO: removeDelegators function\n    delete tree[_user];\n    delete auth[_user];\n    delete vote[voteID];\n    return true;\n  }\n\n  //Pass address(0) if you want to send ether, or the token contract address if you want to send ERC20\n  // Not mandatory...can add event in vote function\n  function initiateTransfer(address _account, uint _amount, address _token)\n  external {\n    require(auth[msg.sender]);\n    bytes32 voteID = keccak256(abi.encodePacked(\"transfer\", _account, _amount, _token));\n    emit logVoteToTransfer(voteID, _account, _amount, _token);\n  }\n\n  function executeTransfer(address _account, uint _amount, address _token)\n  external\n  returns (bool){\n    require(_account != address(0));\n    bytes32 voteID = keccak256(abi.encodePacked(\"transfer\", _account, _amount, _token));\n    require(vote[voteID].mul(100).div(numUsers) > threshold);\n    delete vote[voteID];\n    if(_token == address(0)){\n      //If address = 0, transfer ethereum\n      _account.transfer(_amount);\n    } else {\n      ERC20(_token).transfer(_account, _amount);\n    }\n  }\n\n\n  event logVoteCount(bytes32 voteID, uint count);\n  event logVoteToRemove(bytes32 voteID, address user);\n  event logVoteToTransfer(bytes32 voteID, address account, uint amount, address token);\n\n}\n",
  "sourcePath": "/home/dog/code/peterkyle/liquiddemocracy/liquid-democracy/contracts/LiquidDAOAlternative.sol",
  "compiler": {
    "name": "solc",
    "version": "0.4.24+commit.e67f0147.Emscripten.clang"
  },
  "schemaVersion": "2.0.1",
  "updatedAt": "2018-10-16T08:49:33.076Z"
}